{
  "_format": "hh-sol-artifact-1",
  "contractName": "Transaction",
  "sourceName": "contracts/Transactions.sol",
  "abi": [
    {
      "inputs": [
        {
          "internalType": "address payable",
          "name": "_receiver",
          "type": "address"
        },
        {
          "internalType": "uint256",
          "name": "_amount",
          "type": "uint256"
        }
      ],
      "name": "addToBlockChain",
      "outputs": [],
      "stateMutability": "nonpayable",
      "type": "function"
    },
    {
      "inputs": [],
      "name": "getAllTransactions",
      "outputs": [
        {
          "components": [
            {
              "internalType": "address",
              "name": "sender",
              "type": "address"
            },
            {
              "internalType": "address",
              "name": "receiver",
              "type": "address"
            },
            {
              "internalType": "uint256",
              "name": "amount",
              "type": "uint256"
            },
            {
              "internalType": "uint256",
              "name": "timestamp",
              "type": "uint256"
            }
          ],
          "internalType": "struct Transaction.transactionStructure[]",
          "name": "",
          "type": "tuple[]"
        }
      ],
      "stateMutability": "view",
      "type": "function"
    },
    {
      "inputs": [],
      "name": "getTransactionCount",
      "outputs": [
        {
          "internalType": "uint256",
          "name": "",
          "type": "uint256"
        }
      ],
      "stateMutability": "view",
      "type": "function"
    }
  ],
  "bytecode": "0x60806040526000805534801561001457600080fd5b50610603806100246000396000f3fe608060405234801561001057600080fd5b50600436106100415760003560e01c806327506f53146100465780632e7700f0146100645780634434bd1114610082575b600080fd5b61004e61009e565b60405161005b919061045b565b60405180910390f35b61006c6101bd565b604051610079919061048c565b60405180910390f35b61009c60048036038101906100979190610516565b6101c6565b005b60606001805480602002602001604051908101604052809291908181526020016000905b828210156101b457838290600052602060002090600402016040518060800160405290816000820160009054906101000a900473ffffffffffffffffffffffffffffffffffffffff1673ffffffffffffffffffffffffffffffffffffffff1673ffffffffffffffffffffffffffffffffffffffff1681526020016001820160009054906101000a900473ffffffffffffffffffffffffffffffffffffffff1673ffffffffffffffffffffffffffffffffffffffff1673ffffffffffffffffffffffffffffffffffffffff16815260200160028201548152602001600382015481525050815260200190600101906100c2565b50505050905090565b60008054905090565b6000808154809291906101d890610585565b9190505550600160405180608001604052803373ffffffffffffffffffffffffffffffffffffffff1681526020018473ffffffffffffffffffffffffffffffffffffffff16815260200183815260200142815250908060018154018082558091505060019003906000526020600020906004020160009091909190915060008201518160000160006101000a81548173ffffffffffffffffffffffffffffffffffffffff021916908373ffffffffffffffffffffffffffffffffffffffff16021790555060208201518160010160006101000a81548173ffffffffffffffffffffffffffffffffffffffff021916908373ffffffffffffffffffffffffffffffffffffffff160217905550604082015181600201556060820151816003015550505050565b600081519050919050565b600082825260208201905092915050565b6000819050602082019050919050565b600073ffffffffffffffffffffffffffffffffffffffff82169050919050565b600061035482610329565b9050919050565b61036481610349565b82525050565b6000819050919050565b61037d8161036a565b82525050565b608082016000820151610399600085018261035b565b5060208201516103ac602085018261035b565b5060408201516103bf6040850182610374565b5060608201516103d26060850182610374565b50505050565b60006103e48383610383565b60808301905092915050565b6000602082019050919050565b6000610408826102fd565b6104128185610308565b935061041d83610319565b8060005b8381101561044e57815161043588826103d8565b9750610440836103f0565b925050600181019050610421565b5085935050505092915050565b6000602082019050818103600083015261047581846103fd565b905092915050565b6104868161036a565b82525050565b60006020820190506104a1600083018461047d565b92915050565b600080fd5b60006104b782610329565b9050919050565b6104c7816104ac565b81146104d257600080fd5b50565b6000813590506104e4816104be565b92915050565b6104f38161036a565b81146104fe57600080fd5b50565b600081359050610510816104ea565b92915050565b6000806040838503121561052d5761052c6104a7565b5b600061053b858286016104d5565b925050602061054c85828601610501565b9150509250929050565b7f4e487b7100000000000000000000000000000000000000000000000000000000600052601160045260246000fd5b60006105908261036a565b91507fffffffffffffffffffffffffffffffffffffffffffffffffffffffffffffffff82036105c2576105c1610556565b5b60018201905091905056fea26469706673582212205d4e719204f825fc45420ec2252f7257eacf6f0f786c5e34e4976e44fe36e4b064736f6c63430008120033",
  "linkReferences": {},
  "deployedLinkReferences": {}
}